:03000000020008F3
:200061007508A0750900750AE6750B00750CFC750D00750EDF750F00751013751101751274
:1F0081003E75130175147775150375160275170175184A751901751A53751B0102000314
:0300030002016691
:2000A000AC82AD83AEF0FF758780759850758920EFC313F54FEE13F54EED13F54DEC13F5CB
:2000C0004C907080E4F5F0120212AC82C3E49CFC8C8B8C8DD2ACA2AC92AFA2AF928E22C266
:2000E000ACA2AC92AF22AC82AD837589018D8C8C8AD2A9A2A992AFA2AF928C221099028054
:20010000FB22AF82C2AC8F9910990280FBA299B392AC22AD82AE83AFF08D828E838FF012D7
:200120000AB2FC60188C820DBD00010EC007C006C005120102D005D006D00780DC2212012E
:2001400013900AD275F08002011310980280FB85998222A298E433F58222AF82C007120149
:2001600002D0078F822275B00075A000759000758000D2B1A2B192B012018012019D80FB69
:20018000AE08AF09C007C00612018D800BC006C007904B00E4F5F022D006D00722AE10AFAA
:2001A00011C007C0061201AA800BC006C007900AD575F08022D006D007AE14AF15C007C09C
:2001C00006747BC0E0E4C0E074DDC0E0740AC0E07480C0E08E828F83120006E58124FBF5AF
:2001E00081D006D007AE12AF13C007C0061201F2800BC006C007900AEA75F08022D006D074
:12020000079003E8E4F5F07C007D007E007F0002027730
:200AD2000D0A007072696E740D0A007072696E74663A2025640D0A007072696E746C6E0015
:20021200FB7A20E4FCFDFEFFE5822582F582E58333F583E5F033F5F0EB33FB4017DAE98025
:2002320042E5822582F582E58333F583E5F033F5F0EB33FBEC33FCED33FDEE33FEEF33FF54
:20025200EC954CED954DEE954EEF954F4013EC954CFCED954DFDEE954EFEEF954FFF4382FE
:0502720001DABEEB22E1
:06003700E478FFF6D8FD9D
:200015007900E94400601B7A00900AFD780175A000E493F2A308B8000205A0D9F4DAF2758A
:02003500A0FF2A
:20003D007800E84400600A790175A000E4F309D8FC7800E84400600C7900900001E4F0A3C1
:04005D00D8FCD9FAF8
:2002770085824C85834D85F04EF54F8C508D518E528F53E4F554F555F556F557F558F55993
:20029700F55AF55BC3E554954CE555954DE556954EE557954FE5589550E5599551E55A9557
:2002B70052E55B9553504F783C79007A007B007C007D007E007F0018B8FF0919B9FF051A2E
:2002D700BAFF011BE8494A4B4C4D4E4F70E90554E4B554200555B5551B0556B55616055720
:2002F700B557110558B5580C0559B55907055AB55A92055B808E2285824C85834D85F04EE6
:20031700F54F8C508D518E528F53A84CA94DAA4EAB4FAC50AD51AE52AF53154C74FFB54C59
:180337000C154DB54D07154EB54E02154FE8494A4B4C4D4E4F70D3220A
:02000600E473A1
:20034F00C04B85814B7E008E8312015AD04B2285822D85832E85F02FE4F52AF52BF52C8522
:20036F001C3090034F020438C04BE581F54B24FBFF8F30E4F52AF52BF52CE54B24FBF88663
:10038F002D08862E08862F90034F120438D04B224B
:20039F00AF82C020C021C0221203AC8007C01EC01F8F82221581158115810528E4B5280280
:2003BF00052922AF8274302FFF24C6500B74072FFFE51D60034307208F8202039FE582FFF3
:2003DF00C4540FF582C0071203C2D007740F5FF5820203C285824CAB23AC24AD25AE26AA8A
:2003FF0027754E208A07EF2FF54DEE235401454DFAEB2BFBEC33FCED33FDEE33FEC3EA9547
:20041F004C4008EAC3954CFA430301D54ED68B238C248D258E268A272285821E85831F85F9
:20043F002A20852B21852C22E4F528F529AD2DAE2EAF2F8D828E838FF0120AB2FC74012DF1
:20045F00F52DE43EF52E8F2FECFF7003020A76BF25028003020A6EE4F531F532F533F53413
:20047F00F535F536F537F538F53AF547F548753BFF753CFF852D41852E42852F4385418281
:20049F008542838543F0120AB2F544A385824185834285412D85422E85432F7425B5440886
:2004BF0085448212039F808574D025445068E54424C6406274FFB53B36B53C3385474C85A5
:2004DF00484D90000A120A95858245858346AA447E00EA2545FAEE3546FEEA24D0F547EE5A
:2004FF0034FFF548E54745487093753201808E853B4C853C4D90000A120A95AE82AB83AA8E
:20051F00447D00EA2EFEED3BFBEE24D0F53BEB34FFF53C02049C742EB5441574FFB53B05A7
:20053F00B53C02800302049CE4F53BF53C02049C749F2544500EE544248540085344DF75BE
:20055F001D018003751D007420B54403020602742BB544030205FC742DB5440280797442C6
:20057F00B544030206087443B544030206147444B544030207987446B544030207AF744802
:20059F00B5440302049C7449B54403020798744AB5440302049C744CB544028052744FB5E3
:2005BF0044030207A07450B5440302072D7453B5440280627454B5440302049C7455B5446A
:2005DF00030207A57458B544030207AA745AB5440302049C0207B475310102049C753301B5
:2005FF0002049C75340102049C75360102049C75370102049CE536600AE53014F98930876A
:20061F0006800BE53024FEFB8B308B0187068E8212039F0207C2E53024FDFE8E308E01878D
:20063F000209870309870619198A238B248E258A828B838EF0120A7D85824185834274FFF9
:20065F00B53B09B53C0685413B85423CE5317037C3E5419547E5429548502CE547C39541C0
:20067F00F545E5489542F546AA45AE46154574FFB545021546EA4E600875822012039F80F0
:20069F00E7854547854648AB3BAE3C8523828524838525F0120AB2FA8A3F6034C3E49B7495
:2006BF00808EF063F08095F050261BBBFF011E853F82C006C00312039FD003D006AA23ACB6
:2006DF0024AD250ABA00010C8A238C248D2580BBE53170030207C2C3E5419547E5429548CD
:2006FF0040030207C2E547C39541F545E5489542F546AA45AE46154574FFB545021546EA9E
:20071F004E70030207BC75822012039F80E4E53024FDFE8E308E01870209870309870619B9
:20073F00198A238B248E25AE25BE800040047B438014BE600040047B50800BBE40004004D1
:20075F007B4980027B588B82C00312039F75823A12039F75823012039F75827812039FD02A
:20077F0003BB4902800BBB500280068524821203DC8523821203DC802A753501753A0A806E
:20079F0022753A08801D753A0A8018753A108013753801800E85448212039F80068545474F
:2007BF00854648E5386060E53024FCFE8E308E01874709874809874909874A19191985473A
:2007DF0023854824854925854A267523F275240A7525808523478524488525497401254703
:2007FF00FAE43548FBAE498A238B248E258547828548838549F0120AB2FEFB700302044C96
:20081F008B8212039F80CCE53A700302044CE536602BE53014F9893087068E027B007D0032
:20083F007E008A238B248D258E26E5357064AA23FBFDFE8A238B248D258E268055E5376095
:20085F0021E53024FCFE8E308E0187020987030987050987061919198A238B248D258E2684
:20087F008030E53024FEFE8E308E01870309870619EEFA3395E0FDFE8B238A248D258E26A1
:20089F00E535700EAA23AB24FDFE8A238B248D258E26E5356023E52630E71BC3E49523FB14
:2008BF00E49524FCE49525FDE49526FE8B238C248D258E26800375350075390179617D0051
:2008DF007E00752700853A82C006C005C0011203F3D001D005D006E539700BE527C4FCE782
:2008FF00FB4CF7198002A7270DBD00010EE539B40100E433F539E52345244525452670C2C9
:20091F0089408D3D8E3EE54745487005754701F548E532702DE5317029AA47AB48AC3D0CF5
:20093F007E00C3EC9AEE9B5015758220C003C00212039FD002D0031ABAFF011B80DF8A47CF
:20095F008B48E535601175822D12039F154774FFB547021548802EE53D453E6028E53360C5
:20097F001175822B12039F154774FFB5470215488013E534600F75822012039F154774FF92
:20099F00B547021548E5317033AD47AE488D038E041DBDFF011EC3E53D9BE53E9C503EE56E
:2009BF003260067B307C0080047B207C008B82C006C00512039FD005D00680D1C3E53D95FC
:2009DF0047E53E9548500FE547C3953DF547E548953EF548800BE4F547F54880048D478E4A
:2009FF0048A940AD3DAE3E8D028E041DBDFF011EEA4C6030E539B40100E433F539700A0957
:200A1F00E7C4540FFC8C2780078704740F5CF527852782C006C005C0011203C2D001D005F6
:200A3F00D00680C3E531700302044CAD47AE488D038E041DBDFF011EEB4C700302044C752E
:1E0A5F008220C006C00512039FD005D00680E08F8212039F02044C85288285298322F4
:0B0AF2003C4E4F20464C4F41543E004C
:180A7D00AA82AB83120AB26003A380F8C3E5829AF582E5839BF58322E3
:1D0A9500E582854CF0A4C582C0F0854DF0A4D0F025F0C583854CF0A42583F5832257
:0D000800758161120ACEE5826003020003DB
:1C0AB20020F71430F6148883A88220F507E6A88375830022E280F7E49322E02253
:040ACE00758200220B
:00000001FF
