:03000000020008F3
:100061007508A0750900750AE3750B00750CF97523
:100071000D00750EDC750F007510107511017512EC
:100081003B7513017514197515037516FF75170066
:0F009100751848751901751A51751B0102000386
:0300030002016493
:1000A000AE82AF83758780759850758920EFC31332
:1000B000CE13CEFF8E4C8F4D754E00754F00907055
:1000C00080E4F5F0120269AC82C3E49CFC8C8B8C5A
:1000D0008DD2ACA2AC92AFA2AF928E22C2ACA2AC37
:1000E00092AF22AE82AF837589018F8C8E8AD2A99E
:1000F000A2A992AFA2AF928C2210990280FB22AFEC
:1001000082C2AC8F9910990280FBA299B392AC2263
:10011000AD82AE83AFF08D828E838FF0120A54FCD5
:1001200060188C820DBD00010EC007C006C005120C
:1001300000FFD005D006D00780DC22120110900A03
:100140007475F0801201102210980280FB8599824C
:1001500022A298E433F58222AF82C0071200FFD0BA
:10016000078F822275B00075A00075900075800021
:10017000D2B1A2B192B012017F12019980FB22AEDE
:1001800008AF09C007C00612018C8008C006C0076E
:10019000904B0022D006D00722AE10AF11C007C08E
:1001A000061201A6800BC006C007900A7775F08082
:1001B00022D006D007AE14AF15C007C006747BC0AE
:1001C000E0E4C0E0747FC0E0740AC0E07480C0E086
:1001D0008E828F83120006E58124FBF581D006D044
:1001E00007AE12AF13C007C0061201EE800BC006A7
:1001F000C007900A8C75F08022D006D0079003E8E3
:040200001202BB2209
:100A74000D0A007072696E740D0A007072696E74EA
:100A8400663A2025640D0A007072696E746C6E00FB
:10020400FB7A20E4FCFDFEFFE5822582F582E5838E
:1002140033F583E5F033F5F0EB33FB4017DAE9808F
:1002240042E5822582F582E58333F583E5F033F5F3
:10023400F0EB33FBEC33FCED33FDEE33FEEF33FF39
:10024400EC954CED954DEE954EEF954F4013EC9596
:100254004CFCED954DFDEE954EFEEF954FFF438220
:0502640001DABEEB22EF
:06003700E478FFF6D8FD9D
:100015007900E94400601B7A00900A9F780175A079
:1000250000E493F2A308B8000205A0D9F4DAF2754A
:02003500A0FF2A
:10003D007800E84400600A790175A000E4F309D85E
:10004D00FC7800E84400600C7900900001E4F0A316
:04005D00D8FCD9FAF8
:10026900FBC2D530E715D2D5E4C39582F582E49572
:1002790083F583E495F0F5F0E49BFBE54F30E71750
:10028900B2D5E4C3954CF54CE4954DF54DE4954E46
:10029900F54EE4954FF54FEB12020430D513FBE40C
:1002A900C39582F582E49583F583E495F0F5F0E44E
:1002B9009B22AE82AF837C007D00C3EC9EED9F50F4
:1002C900147A3C7B001ABAFF011BEA4B70F70CBC8D
:1002D90000E80D80E522AE82AF838E048F051EBE35
:0802E900FF011FEC4D70F32230
:02000600E473A1
:1002F100C04B85814B7E008E83120158D04B2285E5
:10030100822D85832E85F02FE4F52AF52BF52C859A
:100311001C309002F10203DAC04BE581F54B24FB5E
:10032100FF8F30E4F52AF52BF52CE54B24FBF886FD
:100331002D08862E08862F9002F11203DAD04B2267
:10034100AF82C020C021C02212034E8007C01EC050
:100351001F8F82221581158115810528E4B5280298
:10036100052922AF8274302FFF24C6500B74072F4A
:10037100FFE51D60034307208F82020341E582FFF1
:10038100C4540FF582C007120364D007740F5FF5E0
:100391008202036485824CAB23AC24AD25AE26AA30
:1003A10027754E208A07EF2FF54DEE235401454D59
:1003B100FAEB2BFBEC33FCED33FDEE33FEC3EA9598
:1003C1004C4008EAC3954CFA430301D54ED68B2322
:1003D1008C248D258E268A272285821E85831F8562
:1003E1002A20852B21852C22E4F528F529AD2DAE77
:1003F1002EAF2F8D828E838FF0120A54FC74012D43
:10040100F52DE43EF52E8F2FECFF7003020A18BF85
:1004110025028003020A10E4F531F532F533F53493
:10042100F535F536F537F538F53AF547F548753BC5
:10043100FF753CFF852D41852E42852F43854182E5
:100441008542838543F0120A54F544A38582418590
:10045100834285412D85422E85432F7425B544085D
:10046100854482120341808574D025445068E54457
:1004710024C6406274FFB53B36B53C3385474C8595
:10048100484D90000A120A37858245858346AA4461
:100491007E00EA2545FAEE3546FEEA24D0F547EE20
:1004A10034FFF548E54745487093753201808E85E4
:1004B1003B4C853C4D90000A120A37AE82AB83AAB1
:1004C100447D00EA2EFEED3BFBEE24D0F53BEB3400
:1004D100FFF53C02043E742EB5441574FFB53B058F
:1004E100B53C02800302043EE4F53BF53C02043EC8
:1004F100749F2544500EE544248540085344DF751C
:100501001D018003751D007420B544030205A47408
:100511002BB5440302059E742DB5440280797442C3
:10052100B544030205AA7443B544030205B67444F5
:10053100B5440302073A7446B544030207517448AF
:10054100B5440302043E7449B5440302073A744AB0
:10055100B5440302043E744CB544028052744FB555
:1005610044030207427450B544030206CF7453B5E5
:10057100440280627454B5440302043E7455B54488
:10058100030207477458B5440302074C745AB54433
:100591000302043E02075675310102043E75330120
:1005A10002043E75340102043E75360102043E75B3
:1005B100370102043EE536600AE53014F9893087D7
:1005C10006800BE53024FEFB8B308B0187068E8283
:1005D100120341020764E53024FDFE8E308E01874F
:1005E1000209870309870619198A238B248E258A14
:1005F100828B838EF0120A1F85824185834274FFAC
:10060100B53B09B53C0685413B85423CE531703738
:10061100C3E5419547E5429548502CE547C39541CF
:10062100F545E5489542F546AA45AE46154574FFA0
:10063100B545021546EA4E600875822012034180D5
:10064100E7854547854648AB3BAE3C8523828524FB
:10065100838525F0120A54FA8A3F6034C3E49B74FF
:10066100808EF063F08095F050261BBBFF011E8544
:100671003F82C006C003120341D003D006AA23ACB7
:1006810024AD250ABA00010C8A238C248D2580BB58
:10069100E5317003020764C3E5419547E54295489A
:1006A1004003020764E547C39541F545E548954296
:1006B100F546AA45AE46154574FFB545021546EA0D
:1006C1004E700302075E75822012034180E4E5301B
:1006D10024FDFE8E308E01870209870309870619E2
:1006E100198A238B248E25AE25BE800040047B43CE
:1006F1008014BE600040047B50800BBE400040046B
:100701007B4980027B588B82C00312034175823A78
:10071100120341758230120341758278120341D070
:1007210003BB4902800BBB50028006852482120361
:100731007E85238212037E802A753501753A0A80EF
:1007410022753A08801D753A0A8018753A1080138F
:10075100753801800E854482120341800685454724
:10076100854648E5386060E53024FCFE8E308E0118
:10077100874709874809874909874A191919854708
:1007810023854824854925854A2675239475240A9D
:10079100752580852347852448852549740125478A
:1007A100FAE43548FBAE498A238B248E258547829E
:1007B1008548838549F0120A54FEFB70030203EE5B
:1007C1008B8212034180CCE53A70030203EEE536D9
:1007D100602BE53014F9893087068E027B007D009D
:1007E1007E008A238B248D258E26E5357064AA230D
:1007F100FBFDFE8A238B248D258E268055E53760EF
:1008010021E53024FCFE8E308E0187020987030921
:1008110087050987061919198A238B248D258E26A8
:100821008030E53024FEFE8E308E01870309870675
:1008310019EEFA3395E0FDFE8B238A248D258E2651
:10084100E535700EAA23AB24FDFE8A238B248D256A
:100851008E26E5356023E52630E71BC3E49523FBAF
:10086100E49524FCE49525FDE49526FE8B238C2458
:100871008D258E26800375350075390179557D00EA
:100881007E00752700853A82C006C005C0011203AB
:1008910095D001D005D006E539700BE527C4FCE7FA
:1008A100FB4CF7198002A7270DBD00010EE539B4F5
:1008B1000100E433F539E52345244525452670C279
:1008C10089408D3D8E3EE54745487005754701F5E8
:1008D10048E532702DE5317029AA47AB48AC3D0C93
:1008E1007E00C3EC9AEE9B5015758220C003C002B6
:1008F100120341D002D0031ABAFF011B80DF8A47DD
:100901008B48E535601175822D120341154774FF3F
:10091100B547021548802EE53D453E6028E5336028
:100921001175822B120341154774FFB54702154813
:100931008013E534600F758220120341154774FF5F
:10094100B547021548E5317033AD47AE488D038E8A
:10095100041DBDFF011EC3E53D9BE53E9C503EE5E8
:100961003260067B307C0080047B207C008B82C05F
:1009710006C005120341D005D00680D1C3E53D95DF
:1009810047E53E9548500FE547C3953DF547E54896
:10099100953EF548800BE4F547F54880048D478E78
:1009A10048A940AD3DAE3E8D028E041DBDFF011E26
:1009B100EA4C6030E539B40100E433F539700A09D5
:1009C100E7C4540FFC8C2780078704740F5CF5275C
:1009D100852782C006C005C001120364D001D0057D
:1009E100D00680C3E53170030203EEAD47AE488DFA
:1009F100038E041DBDFF011EEB4C70030203EE7557
:100A01008220C006C005120341D005D00680E08FC8
:0E0A1100821203410203EE852882852983228A
:0B0A94003C4E4F20464C4F41543E00AA
:100A1F00AA82AB83120A546003A380F8C3E5829ABB
:100A2F00F582E5839BF58322E582854CF0A4C58290
:100A3F00C0F0854DF0A4D0F025F0C583854CF0A40F
:050A4F002583F5832260
:0D000800758155120A70E582600302000345
:100A540020F71430F6148883A88220F507E6A883CB
:100A640075830022E280F7E49322E022758200225B
:00000001FF
